:020000040800F2
:10000000D08A002055020008014F0008213D000859
:10001000FD4E00088D110008497200080000000024
:100020000000000000000000000000009D0100082A
:100030000927000800000000F1010008C164000861
:100040006F0200086F0200086F0200086F020008CC
:100050006F0200086F0200086F0200086F020008BC
:100060006F0200086F0200086F0200086F020008AC
:100070006F020008012200086F020008D522000864
:100080006F020008352300086F020008651400089D
:100090000D140008391400086F0200086F020008F0
:1000A0006F0200086F0200086F0200086F0200086C
:1000B0006F0200086F020008196900086F0200084B
:1000C0006F0200086F0200086F0200086F0200084C
:1000D0006F0200086F020008596E0008F96F0008EF
:1000E0006F0200086F0200086F0200086F0200082C
:1000F0006F0200086F0200086F0200087D230008ED
:100100006F0200086F0200086F0200086F0200080B
:10011000256C00086F0200086F0200086F020008DB
:100120006F0200086F0200086F0200086F020008EB
:100130006F0200086F0200086F020008C91800086B
:10014000711800089D1800086F0200086F0200086F
:100150006F0200086F0200086F0200086F020008BB
:100160006F0200086F0200086F0200086F020008AB
:100170006F0200086F0200086F0200086F0200089B
:100180006F0200086F020008DFF80CD000F0BCFB23
:1001900000480047658E0008D08A00202A4B196865
:1001A0000868B0E8F04F80F30988BFF36F8F4FF015
:1001B000000080F3118870470000000006480068C6
:1001C000006880F3088862B661B6BFF34F8FBFF353
:1001D0006F8F00DF00BF00BF08ED00E0DFF80C000C
:1001E000016841F470010160704700BF88ED00E0D4
:1001F000EFF30980BFF36F8F134B1A681EF0100FD7
:1002000008BF20ED108A20E9F04F106008B44FF0CD
:10021000200080F31188BFF34F8FBFF36F8F0AF078
:10022000BBF94FF0000080F3118808BC196808681A
:10023000B0E8F04F1EF0100F08BFB0EC108A80F34A
:100240000988BFF36F8F704750020020EFF30580DD
:10025000704700000648804706480047FEE7FEE773
:10026000FEE7FEE7FEE7FEE7FEE7FEE7FEE7FEE766
:10027000F56400088901000840EA01039B0703D0E8
:1002800009E008C9121F08C0042AFAD203E011F8D5
:10029000013B00F8013B521EF9D27047D2B201E097
:1002A00000F8012B491EFBD270470022F6E710B57B
:1002B00013460A4604461946FFF7F0FF204610BDD4
:1002C000421C10F8011B0029FBD1801A704703461D
:1002D00011F8012B00F8012B002AF9D118467047BC
:1002E0002DE9FE4F804681EA0300C00F0C460090C6
:1002F00021F0004123F00045B8EB0200A94105D2EE
:100300004046214690461C460B46024623F00040DC
:10031000104347D0270DC7F30A00C3F30A510290D8
:10032000401A019040286BDAC3F3130040F4801B9D
:100330000098924620B10023D2EB030A63EB0B0B2B
:1003400001985946C0F14002504600F0BFF90646F8
:100350000D4650465946019A00F0C7F910EB0800C7
:100360006141002487EA115284EAE7731A4340D0BE
:10037000009A62B3019A012A4FEA075215DC001B6A
:1003800061EB02014FF0004202EA0752CDE9004260
:10039000001C41F5801132462B4600F0FEF903B0F7
:1003A000BDE8F08F40462146F9E7001B61EB0201F2
:1003B000001C41F5801300185B412018A2F50017BE
:1003C00047EB030140EAD570B6196D4111E06D08A5
:1003D0004FEA360645EAC0754FEA0752001B61EB4B
:1003E0000201001C41F5801149084FEA3000001954
:1003F000514132462B4603B0BDE8F04F00F0BEB984
:100400000098012240000023D0EB020263EBE0736E
:10041000009821464FEAE074B8EB000061EB04015C
:10042000E9E783F000435BE781F0004158E72DE9FD
:10043000FE4F81EA030404F0004421F000410094DF
:100440004FF0000B23F0004350EA01045ED052EA63
:1004500003045BD0C3F30A54C1F30A552C44A4F23D
:10046000F3340194A0FB0254C1F3130141F4801151
:10047000C3F3130343F4801301FB024400FB034E58
:10048000840A970A44EA815447EA8357A4FB076821
:1004900002958D0A05FB07854FEA932C04FB0C544B
:1004A0002705029D4FEA065847EA1637B5EB0805BF
:1004B0006EEB070C870E920E47EA811742EA831211
:1004C000A7FB0201B6EB0B0164EB00042B0D43EA22
:1004D0000C335E1844EB1C50DA465146E7FB020130
:1004E000C5F313044FEA0B3343EA14534FEA0432C3
:1004F000019C43EA0603A4F10C040294009CCDE99C
:1005000000B400F04AF903B0BDE8F08F00200146C6
:10051000F9E72DE9F04D81EA030404F0004B21F0E6
:10052000004514464FF0000A23F0004150EA05024E
:1005300020D054EA01021DD0C5F30A570246C5F384
:100540001303C1F31300C1F30A5640F4801543F4BA
:100550008013A7EB0608101BD64608F2FD3873EB94
:10056000050002D308F1010801E092185B41B8F1DF
:10057000000F03DA00200146BDE8F08D00204FF4A3
:100580008011064684460EE0171B73EB050705D362
:10059000121B63EB050306434CEA010C49084FEAC2
:1005A000300092185B4150EA0107EDD152EA030096
:1005B00012D082EA040083EA0501084305D0101B2B
:1005C000AB4106D20122002306E000224FF0004397
:1005D00002E06FF0010253101AEB06004CEB0851D9
:1005E00010EB0A0041EB0B01BDE8F04D00F0C6B87E
:1005F0000EB5C10F80EAE0700844CA07002140F23E
:1006000033438DE80E000A460B4600F0C6F803B0EF
:1006100000BD00F0004230F000400AD0C10D01F5ED
:100620006071C0F3160042EA0151C208400711434D
:10063000704700200146704730B5041E71F1000478
:1006400004DB4FF00044404264EB0101141E73F1DF
:10065000000405DB1C464FF00043524263EB0403E9
:10066000994208BF904230BD01F0004330B421F000
:10067000004150EA010206D00A0DA2F56072C1F3F2
:100680001301002A02DC30BC00207047440F44EA0A
:10069000C104C100E01830BC00EBC25000F037B814
:1006A00030B50B46014600202022012409E021FA42
:1006B00002F59D4205D303FA02F5491B04FA02F53F
:1006C0002844151EA2F10102F1DC30BD202A04DB12
:1006D000203A00FA02F1002070479140C2F1200355
:1006E00020FA03F3194390407047202A06DBCB170A
:1006F000203A41FA02F043EAE07306E041FA02F3DD
:10070000D040C2F1200291400843194670470029A9
:10071000A8BF7047401C490008BF20F00100704787
:1007200010B4B0FA80FC00FA0CF050EA010404BFE7
:1007300010BC704749B1CCF1200421FA04F411FA3D
:100740000CF118BF012121430843A3EB0C01CB1D81
:100750004FEA00614FEA102042BF002010BC7047F2
:1007600000EBC35010440029A4BF10BC7047401CCC
:10077000490008BF20F0010010BC704710B5141EDE
:1007800073F1000408DA401C41F1000192185B414A
:100790001A4301D120F0010010BD2DE9F04D924621
:1007A0009B4611B1B1FA81F202E0B0FA80F2203238
:1007B0009046FFF78BFF04460F4640EA0A0041EAE5
:1007C0000B0153465A46084313D0114653EA010021
:1007D00019D0C8F14002504600F0A8F805460E4670
:1007E000504659464246FFF771FF084305D00120A5
:1007F00004E020463946BDE8F08D0020054346EA76
:10080000E0762C4337430A986305E40AA0EB08001E
:100810000022FD0A44EA47540A3002D5002001466E
:10082000E9E7010510196941DDE908450019694149
:10083000BDE8F04DA2E770B521F0004303430CD0B2
:10084000C1F30A550024D5EB040564EB0403D61765
:10085000AD1AB34102DB0020014670BD201841EB08
:10086000025170BD2DE9F04D00231A461B1A8A4132
:1008700003DB00200146BDE8F08DC1F30A52C1F34D
:10088000130141F480154FF0000BD10702D100187D
:100890006D41521E0027044640F2FF11384601EB1D
:1008A000620A3E468046024600204FF4801100F066
:1008B0003DF8C2197141BB1846EB0100B4EB030CC3
:1008C00075EB000C04D3E41A65EB000517460E46E1
:1008D000241908F101006D4180463428E3DDF9193F
:1008E00046EB0600091BA84103D24FF0FF32134626
:1008F00001E0002213461BEB070046EB0A51BDE85E
:10090000F04DFFF73BBF0000064C074D06E0E068E6
:1009100040F0010394E8070098471034AC42F6D346
:10092000FFF736FC88B10008A8B10008202A04DBD4
:10093000203A21FA02F00021704721FA02F3D04058
:10094000C2F12002914008431946704770B58C18D7
:1009500010F8015B15F0070301D110F8013B2A11D3
:1009600006D110F8012B03E010F8016B01F8016BC0
:100970005B1EF9D12B0705D40023521E0DD401F8BC
:10098000013BFAE710F8013BCB1A921C03E013F885
:10099000015B01F8015B521EF9D5A142D8D30020BA
:1009A00070BD0000B0B5B0F800C00B889C4553D1B5
:1009B00045884B889D424FD113889C454CD1538824
:1009C0009D4249D143684968506805FB0CFC0022F0
:1009D000B2EB9C0F30D04FEA9C0200BF93ED000AAF
:1009E00091ED001A03F1100E30EE010A80ED000ABD
:1009F00093ED010A91ED011A01F1100430EE010AA4
:100A000080ED010A93ED020A91ED021A00F1100542
:100A100030EE010A80ED020A93ED030A91ED031A0C
:100A2000013A30EE010A80ED030A7346284621465A
:100A3000D4D12146284673461CF003020AD000BFD9
:100A4000B3EC010AB1EC011A013A30EE010AA0EC54
:100A5000010AF5D1002000E0FD2040B2B0BD0180C8
:100A600042804360704700002DE9F04F81B02DEDCA
:100A7000028B8EB0B0F800C0B0F802A0D44540F0B0
:100A80003A810B88FD229C4540F036814F88BB425D
:100A900040F0328140689FEDB08ABCF1000F0090B9
:100AA00000F031814C686FF0030000EB8C090027E7
:100AB00000266546CDF828C0204609940A98401BB8
:100AC00008D0B1002046FFF7F0FB3846013004F1B2
:100AD0000404FBD304F1040BB5F101084FF07E5080
:100AE000206012D0A9EB86015846FFF7DEFB0120FB
:100AF0005C4600BF0130854204F10404FAD101369E
:100B0000013FB8F1000F4546D8D1DDF828C0BCF14F
:100B1000000F00F0F8804FEACA00043002900998F4
:100B2000009900EB8A00C0F10009042000EB8A0064
:100B3000ACF1010801EB8A054FEA8A03019001F14B
:100B4000040B4FF0000E0F46564600200A46049054
:100B5000039300BF0EFB0AF002EB800191ED000A47
:100B60000C910999B5EE400AF1EE10FA01EB800004
:100B70000D90CDF82080CDE906950B922ED10EF187
:100B8000010060450DD20020414600BF2A1892EDB9
:100B9000000AB5EE400AF1EE10FA06D10139184408
:100BA000F4D10498012817D0D4E0A0EB090000216B
:100BB00057F82130146842F8043B47F821400131CE
:100BC0008E42F5D10D9A51461368046840F8043BF3
:100BD000013942F8044BF7D1012004900C99AAEB9B
:100BE0000E0991ED008AB9F1010F4FF07E500860B7
:100BF0000DD00120594600BF91ED000A013080EE72
:100C0000080A864281ED000A01F10401F4D10D9930
:100C10005046CDF814B000BF91ED000A013880EEC7
:100C2000080AA1EC010AF7D1DDF82C800998A9F196
:100C3000010B0022654600BF724505D108EB890310
:100C400000EB8A0036E000BF0C9998ED008A91ED28
:100C5000000ABBF1000F28EE000A38EE400A88EDCA
:100C6000000A17D00123042107EB010C08EB010453
:100C70009CED000A94ED001A28EE000A013331EED3
:100C8000400A9E4201F1040184ED000AECD108EB18
:100C9000010301E008F104030D9C5146B4EC011A74
:100CA00090ED000A28EE011A30EE410AA0EC010A8C
:100CB0000139F3D103EB8E08013D02F10102BBD1F2
:100CC000079D02980B9ADDF820800544039BDDF810
:100CD00018900198DDF814B0DDF828C00432013E08
:100CE0000EF1010EA8F10108A9EB030907448344A2
:100CF0007FF430AF09E0FD2250B20EB0BDEC028BA4
:100D000001B0BDE8F08F00200490B5EE408AF1EE0E
:100D100010FA4FF00002EFD104980128ECD00AFB42
:100D20000CF14FF000004FF0000271B1009B00BFCA
:100D300093ED000AB5EE400AF1EE10FA05D101324A
:100D4000914203F10403F3D10A468A4208BF6FF0CF
:100D50000400D2E7FB22CFE7000000002DE9F04FAE
:100D600085B047880B889F4240F08480B0F800B07F
:100D700013889B4540F07E80B1F802E053889E4581
:100D800078D1D0F80480506849680190BC0827F0F9
:100D9000030008EB800604FB0EF09FED390A07F014
:100DA000030C029101EB00104FEA8E02002100902B
:100DB000CDE903E70198DDF808A0009B00EB81096D
:100DC000B0EE401A5746404674B355462746404653
:100DD000B0EE401A95ED002A90ED003A154490EDE2
:100DE000014A23EE022A95ED003A154490ED025A8D
:100DF00031EE021A24EE032A95ED003A154490EDE7
:100E0000036A31EE021A25EE032A95ED003A31EE1F
:100E1000021A26EE032A31EE021A013F00F11000F9
:100E20001544D7D11F463046BCF1000F0CD06546A3
:100E300090ED002A97ED003A043022EE032A31EEBD
:100E4000021A013D1744F3D1A9EC011ABEF1010EBB
:100E50000AF1040A03F10403B2D1DDF80CE0049FA7
:100E6000714408EB8708BBF1010B06EB8706A1D1A3
:100E7000002000E0FD2040B205B0BDE8F08F00BFCB
:100E800000000000B0B5B0F800C00B889C4553D1FD
:100E900045884B889D424FD113889C454CD153883F
:100EA0009D4249D143684968506805FB0CFC00220B
:100EB000B2EB9C0F30D04FEA9C0200BF93ED000ACA
:100EC00091ED001A03F1100E30EE410A80ED000A98
:100ED00093ED010A91ED011A01F1100430EE410A7F
:100EE00080ED010A93ED020A91ED021A00F110055E
:100EF00030EE410A80ED020A93ED030A91ED031AE8
:100F0000013A30EE410A80ED030A73462846214635
:100F1000D4D12146284673461CF003020AD000BFF4
:100F2000B3EC010AB1EC011A013A30EE410AA0EC2F
:100F3000010AF5D1002000E0FD2040B2B0BD000064
:100F40002DE9F04FB0F800A04A88924545D142887B
:100F50000B889A4241D1D1F804C046684FEA920802
:100F600002F003094FEA0A1E4FEA8A014FF0000B14
:100F7000624600BFB8F1000F1AD01546474600BFC1
:100F8000336828462B6073680D444350B3686C186F
:100F90006B50F56806F1100366186550013F06EBCB
:100FA00001051E46ECD100EB0E071E4602E000BF15
:100FB0000CEB8B07B9F1000F06D0484656F8043BFE
:100FC00001383B600F44F9D10BF1010BBAF1010A72
:100FD00002F10402CED1002000E0FD2040B2BDE8C5
:100FE000F08F000070B505460C4600260DB1022CAE
:100FF00000D870BDA11E06480288284601F00EFEEA
:101000000646A01E2E54310A601E295400BFF0E788
:10101000DC02002070B505460C4600260DB1022CFE
:1010200000D870BD611EFF22284601F011FE064661
:10103000601E2E5400BFF4E710B54FF4005108486D
:1010400001F0C7FD28B94FF40051054801F0CCFD6F
:1010500004E04FF40051024801F0C4FD10BD00004F
:101060000008024010B52DED068B1E480068FFF702
:10107000D0FA41EC1A0B9FED1C0B53EC102BFFF731
:10108000D6F941EC180B1A48D0ED260A90ED010A6A
:10109000B8EEC00A30EEC00A10EE101A0846FFF78C
:1010A000B8FA41EC190B53EC182BFFF7C5FA09D22B
:1010B0001048B0F900000F490988491C09B20D4ACF
:1010C000118000E000200B4908800846B0F90000BC
:1010D000B0F5FA7F03DD00200549A1F83801BDEC29
:1010E000068B10BD14010020000000000000E03F4E
:1010F000700E00200A01002070B586B004460D462F
:10110000164600208DF80C008DF80D0008208DF893
:101110000E00800101901B48854200DC05E042F290
:101120001070854200DB00E02846054615488642DF
:1011300000DC05E042F21070864200DB00E0304641
:1011400006461048844200DC05E042F210708442FA
:1011500000DB00E020460446280A8DF80F008DF8D9
:101160001050310A8DF811108DF81260210A8DF897
:1011700013108DF8144001A9034800F058FE06B082
:1011800070BD0000F0D8FFFF0064004000BFFEE724
:1011900000B58BB00121022004F040FB012148067C
:1011A00004F04CFB092208215D4801F0EFFC092204
:1011B00011465B4801F0EAFC4FF4407002900220B7
:1011C0008DF80C008DF80D0000208DF80E00012028
:1011D0008DF80F0002A9524801F090FC14208DF800
:1011E000040001208DF8050000208DF80600012084
:1011F0008DF8070001A803F085FE15208DF8040086
:1012000001208DF8050000208DF8060001208DF8E2
:10121000070001A803F076FE13208DF804000120DA
:101220008DF8050000208DF8060001208DF80700DC
:1012300001A803F067FE3B4800F0AEFB08A800F0F1
:10124000E6FD00208DF8260001208DF827008DF89E
:10125000280000208DF829008DF82A0001208DF843
:101260002B0000208DF822008DF8230008208DF837
:10127000240003208DF82500ADF8200008A9294896
:1012800000F0C3FC00208DF81A0001208DF81B002F
:1012900000208DF81C0044F22000ADF8100044F24C
:1012A0004000ADF8120044F26000ADF814000020D8
:1012B000ADF81600ADF8180001208DF81D0004A847
:1012C00000F086FB01208DF81A008DF81B0000202D
:1012D0008DF81C004FF40050ADF8100042F22000D1
:1012E000ADF812000020ADF81400ADF81600012092
:1012F000ADF818008DF81D0004A800F069FB01226C
:101300000221084800F078FC01221021054800F075
:1013100073FC01221146034800F06EFC0BB000BDC7
:1013200000040240006400403348006840F201219C
:10133000884218D13048007B2F49C97A40EA012001
:101340002E4908802C48817B407B41EA002000B276
:101350002A4948812A48B0F84800401C00B2284970
:10136000A1F8480046E02448006840F20221884283
:101370001AD12148007B2049C97A40EA01201F493F
:10138000A1F83C011C48817B407B41EA002001B26E
:101390001A48A0F846111A48B0F85000401C00B294
:1013A0001749A1F8500025E01348006840F20321D6
:1013B00088421FD11048007B0F49C97A40EA0120BA
:1013C000104908800C48817B407B41EA002000B234
:1013D0000C4948810848817B407B41EA002000B2EB
:1013E000084948810648B0F85800401C00B204493A
:1013F000A1F858007047000058720020AC0F002080
:10140000080A0020700E00207047000010B502216D
:10141000074800F061FB50B1064A0021044800F083
:101420007EFCFFF781FF0221014800F05BFA10BD4E
:10143000006400405872002010B51021074800F0E9
:101440004BFB50B1064A0121044800F068FCFFF74D
:10145000DBFF1021014800F045FA10BD0064004098
:101460006C72002010B50121044800F035FB18B162
:101470000121024800F036FA10BD0000006400406F
:1014800000B58BB00121022004F0C8F901218806C3
:1014900004F0D4F909220D215C4801F077FB092200
:1014A0000C215A4801F072FB4FF440500290022088
:1014B0008DF80C008DF80D0000208DF80E00012035
:1014C0008DF80F0002A9514801F018FB40208DF85B
:1014D000040001208DF8050000208DF80600012091
:1014E0008DF8070001A803F00DFD41208DF80400E0
:1014F00001208DF8050000208DF8060001208DF8F0
:10150000070001A803F0FEFC3F208DF80400012035
:101510008DF8050000208DF8060001208DF80700E9
:1015200001A803F0EFFC3A4800F036FA08A800F0F2
:101530006EFC00208DF8260001208DF827008DF824
:10154000280000208DF829008DF82A0001208DF850
:101550002B0000208DF822008DF8230008208DF844
:10156000240003208DF82500ADF8200008A92848A4
:1015700000F04BFB0F208DF81A0001208DF81B00A6
:1015800000208DF81C0044F2E000ADF8100044F299
:10159000A000ADF812004FF48240ADF8140044F200
:1015A000C000ADF816000020ADF8180001208DF83D
:1015B0001D0004A800F00CFA10208DF81A0000207D
:1015C0008DF81B008DF81C00ADF81000ADF812006E
:1015D000ADF81400ADF816000120ADF818008DF834
:1015E0001D0004A800F0F4F901220221084800F0CF
:1015F00003FB01221021064800F0FEFA01221146E9
:10160000034800F0F9FA0BB000BD000000040240EE
:10161000006800404948006840F2072188421ED116
:101620004648007B4549C97A40EA01204449088080
:101630004248817B407B41EA002000B240498880DB
:101640003E48017CC07B41EA002000B23C49488012
:101650003C48008A401C00B23A4908826CE0374896
:10166000006840F2052188421ED13448007B33498E
:10167000C97A40EA0120344908803048817B407BA8
:1016800041EA002000B2304988802C48017CC07BB0
:1016900041EA002000B22C4948802A48008B401CB7
:1016A00000B22849088347E024480068B0F5027F6B
:1016B0001ED12248007B2149C97A40EA01202349F2
:1016C00008801E48817B407B41EA002000B21F4910
:1016D00088801A48017CC07B41EA002000B21B4987
:1016E000488018480088401C00B21649088023E052
:1016F0001248006840F2062188421DD10F48007B45
:101700000E49C97A40EA0120114908800B48817BC3
:10171000407B41EA002000B20D4988800748017CE7
:10172000C07B41EA002000B2094948800548008991
:10173000401C00B2034908817047000080720020FD
:101740004C120020080A002078150020A418002060
:10175000D01B00203D480068B0F5807F10D13C4888
:101760003A49D1F80B10816101463848D0F80F0092
:1017700008613848008E401C00B23649088664E093
:101780003248006840F20111884210D130482F4998
:10179000D1F80B10016201462C48D0F80F004861C7
:1017A0002C48008F401C00B22A4908874DE027488A
:1017B0000068B0F5817F10D127482449D1F80B107B
:1017C000816101462148D0F80F0008612148008C52
:1017D000401C00B21F49088437E01C48006840F2F2
:1017E0000311884210D11C481849D1F80B1001622E
:1017F00001461648D0F80F0048611648008D401C7D
:1018000000B21449088520E010480068B0F5837FD5
:101810001BD112480D49C97A017011490B48007B50
:10182000087010490948B0F80D0008800E490748B3
:10183000C07B08700748B0F86800401C00B205493A
:10184000A1F86800002009490860704794720020E0
:10185000D0080020080A00202C09002000010020E8
:101860000101002070000020740000209C0800206E
:1018700010B50221074800F02FF950B102210548A8
:1018800000F030F8044A0021024800F048FAFFF75F
:10189000C1FE10BD006800408072002010B510210C
:1018A000074800F019F950B11021054800F01AF866
:1018B000044A0121024800F032FAFFF74BFF10BD45
:1018C000006800409472002010B50121044800F027
:1018D00003F918B10121024800F004F810BD00001E
:1018E00000680040B1F5007F3AD00FDC202928D0F5
:1018F00006DC01291CD004291DD0082940D11DE097
:10190000402921D0B1F5807F3AD126E0B1F5004FD2
:1019100031D006DCB1F5806F25D0B1F5006F2FD145
:1019200024E0B1F5803F12D0B1F5003F28D111E09D
:10193000154A826025E00822C26022E01022C260BF
:101940001FE0082202611CE01022026119E0082257
:10195000426016E01022426013E00422426010E070
:10196000042242600DE0042242600AE0002282610B
:101970000422426005E0002282610422426000E00D
:1019800000BF00BF704700000101010010B5FFF764
:10199000FFFBFFF775FD10BD10B504460B488442F0
:1019A00009D10121480603F059FF00214FF00070D2
:1019B00003F054FF08E00121880603F04FFF0021E7
:1019C0004FF0806003F04AFF10BD0000006400404B
:1019D00010B50021837A012202FA03F13D4A126810
:1019E00042F001023B4B1A603A4A1C3212688A43A9
:1019F000384B1C331A60027BCAB9364A0C32126863
:101A00008A43344B0C331A604288C38842EA03434A
:101A1000304A4032847A42F834300288838842EA7D
:101A200003432C4A4032847A02EBC4025360027BA7
:101A3000012A19D1274A0C3212680A43254B0C336C
:101A40001A604288038842EA0343224A4032847A79
:101A500042F83430C288838842EA03431D4A403248
:101A6000847A02EBC4025360C27A3AB9194A121D51
:101A700012688A43174B1B1D1A6006E0154A121D97
:101A800012680A43134B1B1D1A60028932B9114AAE
:101A9000143212688A430F4B14331A600289012AE8
:101AA00006D10C4A143212680A430A4B14331A60E6
:101AB000427B012A06D1074A1C3212680A43054BB1
:101AC0001C331A60034A126822F00102014B1A60AB
:101AD00010BD00000066004070B504460D460026AB
:101AE00060692840002871D0B5F5807F5CD010DC9B
:101AF000082D35D006DC012D20D0022D24D0042D58
:101B000072D127E0102D31D0202D35D0402D6BD152
:101B100038E0B5F5004F60D009DCB5F5007F49D05D
:101B2000B5F5806F4CD0B5F5006F5DD14FE0B5F5E0
:101B3000803F2DD0B5F5003F56D12FE0A0682D494C
:101B400000F008FB064651E0E068032100F002FBCC
:101B500006464BE0E068082100F0FCFA064645E046
:101B6000E068102100F0F6FA06463FE02069032104
:101B700000F0F0FA064639E02069082100F0EAFAA0
:101B8000064633E02069102100F0E4FA06462DE015
:101B90006068082100F0DEFA064627E06068102140
:101BA00000F0D8FA064621E0A069012100F0D2FA3F
:101BB00006461BE0A069022100F0CCFA064615E0BB
:101BC000A069042100F0C6FA06460FE00FE0A06904
:101BD000702100F0BFFA064608E06068042100F0BA
:101BE000B9FA064602E0FFE7002600BF00E0002643
:101BF000304670BD010101001AB143690B434361D6
:101C000002E043698B434361704730B502460020D0
:101C10000023146824F002041460146844F00104E2
:101C2000146000E05B1C546804F001041CB94FF61A
:101C3000FF74A342F6D1546804F001040CB90020EB
:101C40006CE08C79012C04D1146844F08004146099
:101C500003E0146824F080041460CC79012C04D1D2
:101C6000146844F04004146003E0146824F0400455
:101C700014600C7A012C04D1146844F02004146020
:101C800003E0146824F0200414604C7A012C04D181
:101C9000146844F01004146003E0146824F0100485
:101CA00014608C7A012C04D1146844F00804146088
:101CB00003E0146824F008041460CC7A012C04D1E9
:101CC000146844F00404146003E0146824F004046D
:101CD00014608C78A407CD7844EA05640D7944EA51
:101CE00005444D7944EA05540D886D1E2C43D4619A
:101CF000146824F001041460002300E05B1C5468A5
:101D000004F001041CB14FF6FF74A342F6D15468ED
:101D100004F001040CB1002000E0012030BD10B53A
:101D200000F5D87303EB01131B6803F0040313726F
:101D3000137A53B900F5D87303EB01131B6840F213
:101D4000FF7404EA5353136009E000F5D87303EB02
:101D500001131B686FF0604404EAD303536000F57D
:101D6000D87303EB01131B6803F00203537200F5F1
:101D7000D87303EB01135B6803F00F03937200F554
:101D8000D87303EB01135B681B0AD37400F5D87397
:101D900003EB01139B68D37200F5D87303EB0113B7
:101DA0009B681C0A147300F5D87303EB01139B683E
:101DB0001C0C547300F5D87303EB01139B681B0EC6
:101DC000937300F5D87303EB0113DB68D37300F54D
:101DD000D87303EB0113DB681C0A147400F5D87385
:101DE00003EB0113DB681C0C547400F5D87303EB90
:101DF0000113DB681B0E937421B9C36843F0200301
:101E0000C36003E0036943F02003036110BD0021B8
:101E10008171C171017241728172C1728170C17030
:101E2000032101710221417101210180704710B528
:101E300002460020936803F08063B3F1806F00D105
:101E400010E0936803F00063B3F1006F01D101204B
:101E500008E0936803F08053B3F1805F01D1022062
:101E600000E00420042874D002F5C07303EB0013D3
:101E70001B6803F0010402F5C07303EB00131C6040
:101E80000B7A7BB94B7A0C8843EA445302F5C07451
:101E900004EB00142468234302F5C07404EB00141F
:101EA000236010E00B7A4C6843EAC4034C7A234366
:101EB00002F5C07404EB00142468234302F5C074D7
:101EC00004EB001423608B7A03F00F038B7202F58E
:101ED000C07303EB00135B6823F00F0402F5C073BB
:101EE00003EB00135C6002F5C07303EB00135B6847
:101EF0008C7A234302F5C07404EB001463608B7B7F
:101F00001C064B7B44EA03440B7B44EA0323CC7A54
:101F1000234302F5C07404EB0014A3608B7C1C0601
:101F20004B7C44EA03440B7C44EA0323CC7B2343ED
:101F300002F5C07404EB0014E36002F5C07303EB18
:101F400000131B6843F0010402F5C07303EB001398
:101F50001C6010BD0EB500201049086010480B46EB
:101F60000ECB0EC00121082003F068FC01210820DF
:101F700000F036F90B4801905320ADF80000002026
:101F8000ADF80200ADF808006946074804F00EFD00
:101F90000121054804F0DAFC0EBD0000C00200205B
:101FA00060730020FEFFFF7F000C004060E04FF4F4
:101FB000C8713048FEF779F92E4808F01FFA4FF43F
:101FC000C8712D48FEF771F9002408E02B4951F83B
:101FD000240007F01FFF2A4941F82400641C072C45
:101FE000F4D3002007F016FF26490860224808F0C5
:101FF0009BF9002003F096FD23A1002003F048FE8A
:10200000002003F08FFD2CA1002003F041FE0020F2
:1020100003F088FD174A36A1002003F039FE0020A6
:1020200003F080FD18A1002003F032FE002003F031
:1020300079FD30A1002003F02BFE002003F072FD9B
:102040000D4A2BA1002003F023FE002003F06AFDBF
:1020500032A1002003F01CFE4FF47A7008F068F8FB
:102060009FED3B0A00F0ACFB9FED390A00F088FCC5
:102070009DE70000340B0020C40C0020B4080020B1
:10208000540E0020FC0000202D2D2D2D2D2D2D2D4A
:102090002D2D2D2D2D2D2D2D2D2D2D2D2D2D2D2D70
:1020A0002D2D2D2D2D2D2D2D2D2D2D2D2D2D2D2D60
:1020B0002D2D2D2D2D0D0A004E616D652020202027
:1020C0005374617465205072696F7269747920204D
:1020D00020202052656D61696E537461636B20200E
:1020E00020202053657175656E63650D0A00000040
:1020F000257300004E616D652020202020202020C7
:102100002052756E436F756E7473202020205573B6
:10211000696E67526174650D0A0000002D2D2D2D2A
:102120002D2D2D2D2D2D2D2D2D2D2D2D2D2D2D2DDF
:102130002D2D2D2D2D2D2D2D2D2D2D2D2D2D2D2DCF
:102140002D2D2D2D2D2D2D2D2D0D0A0A00000000D9
:1021500000007A440246002002EA01030BB101208C
:1021600000E00020704700004178052902D00629D0
:102170000ED106E00B490988491C09B2094A1180B1
:102180000DE008494989491C09B2064A518106E017
:102190000449498A491C09B2024A518200BF00BF62
:1021A00070470000F00A0020012803D1034991ED97
:1021B000000A7047024991ED000AFAE71402002074
:1021C0003C020020012803D1034991ED000A704729
:1021D000024991ED000AFAE71802002040020020AF
:1021E00029B1064A52680243044B5A6004E0034A8C
:1021F00052688243014B5A6070470000002004E09F
:1022000070B52D492D4800F001FA002853D0002167
:102210002A4800F0FBF8102229492A48FEF72CF83A
:10222000002432E027481038005D21282BD10025FA
:1022300007E0281923491039085C23494855681CD0
:1022400005B2102DF5DB21480088401C00B21F4963
:10225000088010211C4805F0F9F818B11A4801F05F
:10226000BDFC0FE01A480088401C00B218490880E5
:10227000B1F90000C11700EB91718910A0EB810149
:10228000134A118003E0601C04B2102CCADB00BFAB
:102290004FF08151094800F085F80749074800F0E0
:1022A0009BF810220749A1F11000FDF7E5FF01217D
:1022B000024800F0ABF870BD008020104060024082
:1022C000137300204E7300202E730020BA020020EA
:1022D000BC02002010B51249124800F097F9E8B18D
:1022E0000021104800F092F80F490E4800F05AF80B
:1022F0000B490C4800F070F80B210A4800F002FA74
:1023000000BF8021094804F0D8FE0028F9D08021C0
:10231000064804F0A5FE0648FFF726FF10BD0000A2
:10232000208000207060024020000020004C00400F
:102330002373002010B50D490D4800F045F9012820
:1023400012D100BF40210B4804F0B7FE0028F9D09D
:102350000949074800F026F80749054800F03CF80D
:102360004021044804F07CFE10BD000000802020C5
:10237000A0600240004400400000202010B5074942
:10238000074800F043F938B10449054800F024F843
:102390000021034800F03AF810BD0000008000283A
:1023A000B86002400246094B9A4201D2084801E057
:1023B0000648103801F000531BB1064B0B40C360B8
:1023C00002E0044B0B408360704700001064024041
:1023D000006002407D0F7D0F0246094B9A4201D2F8
:1023E000084801E00648103801F000531BB1064BC5
:1023F0000B40C36002E0044B0B4083607047000059
:1024000010640240006002407D0F7D0F21B1026820
:1024100042F00102026003E0026822F00102026061
:1024200070470000016821F0010101600021016096
:1024300041608160C1600161212141614A49884256
:1024400004D13D21484A103A91608CE04649183148
:10245000884205D14FF47461434A103A916082E09A
:1024600041493031884205D14FF474113E4A103A47
:10247000916078E03C494831884205D14FF0746161
:10248000394A103A91606EE037496031884204D190
:102490003649354A103AD16065E03349783188428F
:1024A00004D13349304A103AD1605CE02E49903172
:1024B000884204D12F492C4A103AD16053E02A496E
:1024C000A831884205D14FF03D51274A103AD160DA
:1024D00049E02949884204D13D21274A083A116040
:1024E00041E025491831884205D14FF47461224AF0
:1024F000083A116037E020493031884205D14FF465
:1025000074111D4A083A11602DE01B494831884278
:1025100005D14FF07461184A083A116023E016495A
:102520006031884204D11149134A121F11601AE028
:1025300011497831884204D10D490F4A121F1160A8
:1025400011E00D499031884204D10A490A4A121F0C
:10255000116008E00849A831884204D14FF03D518C
:10256000054A121F11607047106002403D000020B4
:10257000400F002000003D201064024021B102689D
:1025800042F48022026003E0026822F480220260AA
:10259000704722B1036843F40023036003E003683B
:1025A00023F400230360016170470146486880B24C
:1025B0007047014600200A6802F400220AB1012097
:1025C00000E000207047000030B503460A460020B6
:1025D00000240B4DAB4201D20A4901E008491039F1
:1025E00002F000550DB14C6800E00C68064D2C401F
:1025F00004EA02050DB1012000E0002030BD00001A
:1026000010640240006002407D0F7D0F70B50246ED
:10261000002000240025124EB24201D2114B01E0ED
:102620000F4B103B104E0E4036B11E2606EAD12449
:10263000166806EA040502E0566906F0800501F016
:1026400000560EB15C6800E01C68084E344004EA95
:10265000010616B10DB1012000E0002070BD0000A0
:1026600010640240006002403C0F3C0F7D0F7D0F64
:1026700010B501F080034BB122B1436943F08003F0
:10268000436103E0436923F08003436180290BD059
:102690002AB1036801F01E042343036004E00368C9
:1026A00001F01E04A343036010BD000010B500221A
:1026B0000268134B1A40CC680B6823434C692343D0
:1026C0008C692343CC6923430C6A23434C6A23431C
:1026D0008C6A23434C6B23438C6B23431A43026065
:1026E000426922F00702D1E90B3423431A434261C5
:1026F0000B6943604B6883608B68C36010BD00004A
:102700003F801CF04160704770470000F0EE400AC7
:1027100001460B2009E0421E01EB820292ED001AF5
:1027200001EB800282ED001A401E0028F3D1C1EDBA
:10273000000A00BF0FE0094A02EB8002D2ED001A46
:1027400001EB800292ED002AB0EE401A01EE821AEF
:10275000B0EE410A401C0C28EDD37047ECAD0008E8
:10276000002104E09FED030A80ED000A491C0C29BA
:10277000F8DB7047000000000F4890ED000AF0EE13
:10278000000AB4EEE00AF1EE10FA03D22D200B4954
:10279000086010E0084890ED000AF0EE0C0AB4EE74
:1027A000E00AF1EE10FA03D23C200449086002E08E
:1027B0005020024908607047E40000201801002002
:1027C00010B52DED0A8BB0EE408A6A48B0F90000D2
:1027D00000EE100AB8EEC00AC0EE080A6548C0ED67
:1027E000010AB0F9080000EE100AB8EEC00AC0EE07
:1027F000080A6048C0ED030AB0F9100000EE100AA4
:10280000B8EEC00AC0EE080A5A48C0ED050AB0F991
:10281000180000EE100AB8EEC00AC0EE080A5548CB
:10282000C0ED070AB0F9200000EE100AB8EEC00AA9
:10283000C0EE080A4F48C0ED090AB0F9280000EEC2
:10284000100AB8EEC00AC0EE080A4A48C0ED0B0AEA
:10285000B0F9300000EE100AB8EEC00AC0EE080A67
:102860004448C0ED0D0AB0F9380000EE100AB8EE89
:10287000C00AC0EE080A3F48C0ED0F0AB0F9400098
:1028800000EE100AB8EEC00AC0EE080A3948C0EDE2
:10289000110AB0F94800400000EE100AB8EEC00A74
:1028A000C0EE080A3348C0ED130AB0F950004000EA
:1028B00000EE100AB8EEC00AC0EE080A2D48C0EDBE
:1028C000150AB0F9580000EE100AB8EEC00AC0EEC2
:1028D000080A2848C0ED170A18EE100AFDF799FEFD
:1028E00041EC1A0B2349B1F96000FDF781FE9FED21
:1028F000220B53EC102BFDF79AFD53EC1A2BFDF72E
:1029000008FEFDF7B1FE1B4948660846B0F86800AE
:10291000322110FB01F000EE100AB8EEC00AC0EE42
:10292000080A1448C0ED1B0AB0F9700000EE100A46
:10293000B8EEC00AC0EE080A0E48C0ED1D0A00201D
:102940000C49088008810882088308840885088665
:102950000887A1F84000A1F84800A1F85000A1F8AC
:102960005800A1F86000A1F86800A1F87000BDEC63
:102970000A8B10BD080A00200000000000002C4057
:102980001548B0F90000C0EBC000400000EE900A0E
:10299000F8EEE00A80EE801A0F4880ED011AB0F9D7
:1029A0000A00400000EE900AF8EEE00A80EE801A7D
:1029B000094880ED031AB0F9120000EE900AF8EE13
:1029C000E00A80EE801A044880ED051A00200249D2
:1029D0000880488148827047F00A002070B52DEDCC
:1029E000028B04460D46002C01DC002005E043F676
:1029F000CA20844200DB00E02046404200EE100A7C
:102A0000B8EEC00A394880ED030A002D01DC002031
:102A100005E043F6CA20854200DB00E0284600EED0
:102A2000100AB8EEC00A314880ED520AB0F90A0027
:102A300000EE900AF8EEE00AB0EE600A00221146BD
:102A40002A480C3002F054FBB0EE408A9FED280A71
:102A5000B4EEC08AF1EE10FA02D89FED250A0BE021
:102A60009FED240AB4EEC08AF1EE10FA02DB9FED6E
:102A7000210A01E0B0EE480ABDEEC00A10EE100ACD
:102A800000B21A49A1F838010846B0F9460100EE33
:102A9000900AF8EEE00AB0EE600A002211461648ED
:102AA00002F026FBB0EE408A9FED110AB4EEC08A18
:102AB000F1EE10FA02D89FED0E0A0BE09FED0D0A21
:102AC000B4EEC08AF1EE10FA02DB9FED0A0A01E0D3
:102AD000B0EE480ABDEEC00A10EE100A01B203487B
:102AE000A0F87412BDEC028B70BD0000AC0F00208A
:102AF00000401CC600401C46F4100020F0B50A46F9
:102B000000210023002400BF3DE0012505FA01F368
:102B1000156805EA03049C4234D105684F0003267A
:102B2000BE40B543056015794E00B5400668354393
:102B300005601579012D02D01579022D16D1856811
:102B40004F000326BE40B543856055794E00B54021
:102B5000866835438560456801268E40B5434560EB
:102B6000456896798E40B6B235434560C5684F00DA
:102B70000326BE40B543C560D5794E00B540C66852
:102B80003543C560491C1029BFD3F0BDF0B5002303
:102B900000244D07ED0E02FA05F3CE1000F12005DA
:102BA00055F826504E07F70E0F26BE40B543CF10FE
:102BB00000F1200646F82750CE1000F1200555F808
:102BC000265045EA0304CE1000F1200545F82640C2
:102BD000F0BD0246002053690B400BB1012000E01C
:102BE00000207047418370470183704708B5094949
:102BF000096800910168009A511A00EE901AF8EEE7
:102C0000600A9FED051AC0EE811AB0EE610A0099C4
:102C1000016008BD240C00400024744930B503460F
:102C200013B94FF6FF7030BD09E013F8014B82EA8B
:102C30000400C0B2054D35F8100080EA2222081EBB
:102C4000A1F10101F1D11046EDE70000EAAA000868
:102C500030B5034605E013F8010B80EA020404488E
:102C6000025D081EA1F10101F5D1104630BD000042
:102C7000EBAC000870B50646F4683569F07838B1F9
:102C800094ED020A84ED060A95ED020A85ED060A26
:102C90003078302808D196ED050A84ED060A96EDC5
:102CA000060A85ED060A07E094ED020A84ED060A9D
:102CB00095ED020A85ED060A94ED060A84ED070AF1
:102CC00095ED060A85ED070A00221146304600F010
:102CD00057FE70BD10B52DED048B1B4890ED050A15
:102CE0001A4880ED060A184890ED060A184880ED4B
:102CF000060A184890ED050A174880ED060A15489F
:102D000090ED060A154880ED060A114890ED060A76
:102D10001248D0ED060A30EE200A10EE101A0846CE
:102D2000FDF777FC41EC190B9FED0D0B53EC102BCD
:102D3000FDF7EFFB41EC180BFDF796FC0A49086024
:102D4000BDEC048B10BD00001C1F0020A418002047
:102D5000D01B0020FC1E00204C1200207815002003
:102D600000000000000000409401002010B50F4852
:102D700090ED050A0E4880ED060A0C4890ED060A13
:102D80000C4880ED060A90ED020ADFED0B0A30EEEA
:102D9000200A0A4880ED000A0021094800F03CF9A9
:102DA0009FED050A074880ED060A10BD1C1F002094
:102DB000A4180020D01B0020000024C29401002091
:102DC000FC1E00207815002010B51748006820B9B7
:102DD0000021164800F020F904E013480068401E66
:102DE000114908601248006820B90021114800F01C
:102DF00013F904E00E480068401E0D4908600E48B3
:102E0000006800280ADD0C480068401E0A49086076
:102E10009FED0A0A0A4880ED000A04E09FED090AC6
:102E2000074880ED000A10BDC0010020FC1E0020F4
:102E3000C40100201C1F0020980100200000000099
:102E4000940100208FC2F5BD10B5404800783028AD
:102E500010D13F4890ED000A3E4880ED060A3E48FA
:102E600090ED000A3D4880ED060A4FF47A703C4927
:102E700008600CE03A48006820B90021334800F0AF
:102E8000CBF804E036480068401E354908603548F4
:102E90000078302810D1344890ED000A334880ED96
:102EA000060A334890ED000A324880ED060A4FF4D6
:102EB0007A70314908600CE02F48006820B9002181
:102EC000284800F0A9F804E02B480068401E2A4971
:102ED00008601E480078302831D12048D0ED060A1D
:102EE00090EDB80AB8EEC00A30EEC00AFAEE0A0A4F
:102EF000B4EEE00AF1EE10FA05DD9FED200A20485D
:102F000080ED000A20E01548D0ED060A90EDB90AE0
:102F1000B8EEC00A30EEC00AF0EE080AB4EEE00ADD
:102F2000F1EE10FA05D29FED170A154880ED000A60
:102F30000AE09FED150A124880ED000A04E09FEDBB
:102F4000110A0F4880ED000A10BD0000FC1E002091
:102F5000B40000204C120020B000002078150020A2
:102F6000C00100201C1F00208C000020A41800209D
:102F700088000020D01B0020C40100208FC2F53D36
:102F8000940100208FC2F5BD0000000010B50F486D
:102F900090ED050A0E4880ED060A0C4890ED060AF1
:102FA0000C4880ED060A90ED020ADFED0B0A30EEC8
:102FB000200A0A4880ED000A0021094800F02CF898
:102FC0009FED050A074880ED060A10BDFC1E002093
:102FD0004C120020781500200000244294010020AB
:102FE0001C1F0020D01B002010B50446E16801F52D
:102FF0009C7002F04FF9E16801F1AC0002F04AF96F
:10300000216901F59C7002F045F9216901F1AC00DC
:1030100002F040F910BD00002DE9F0412DED108BBC
:103020008AB006460F46F4683569D4ED060A94ED79
:10303000BC0AB8EEC00ADB4890ED001A30EE010A77
:10304000F4EEC00AF1EE10FA08D894EDBC0AB8EE1E
:10305000C00AD0ED000A30EE200A1AE0D4ED060ACC
:1030600094EDBB0AB8EEC00ACE4890ED001A30EEDF
:10307000410AF4EEC00AF1EE10FA08DB94EDBB0A47
:10308000B8EEC00AD0ED000A30EE600A01E094ED1F
:10309000060A84ED060A04F53B7003C8A0EB01089C
:1030A000B8F1000F01DB414601E0C8F1000108461C
:1030B000FDF79EFACDE9020104F53B7106C98818B7
:1030C000FDF796FA41EC1F0B9FEDB70B53EC102B5D
:1030D000FDF71FFA41EC1D0B94ED060A10EE101AD5
:1030E0000846FDF796FA41EC1E0B53EC1D2BFDF73D
:1030F00098F941EC1C0B9FEDAC0B53EC102BFDF73A
:1031000096F9CDE900019DED020B53EC102B9DEDDE
:10311000000B51EC100BFDF7FCF99FEDA31BCDE963
:1031200004019DED040B04F02FFD8DED060B9FEDCA
:10313000A00B53EC102B9DED060B51EC100BFDF783
:1031400073F941EC1B0BB0EE4B0AF0EE6B0A05F085
:1031500043FBB0EE409AF0EE609A92480068FDF7AB
:1031600058FA41EC1A0B53EC192BFDF760F9CDE935
:1031700008019DED080B51EC100BFDF775FA08EEF8
:10318000100A94ED060A8748D0ED000A70EE200A76
:1031900094EDBB0AB8EEC00AF4EEC00AF1EE10FAE4
:1031A00003DB707908B10020707194ED060A7D4848
:1031B000D0ED000A70EE600A94EDBC0AB8EEC00AC9
:1031C000F4EEC00AF1EE10FA03D8707908B90120C4
:1031D0007071D4ED060A7079012802D1B0EE480A68
:1031E00001E0B1EE480A30EE800A84ED060A012FB4
:1031F0007ED1D5ED060A95EDBC0AB8EEC00A6E4840
:1032000090ED001A30EE010AF4EEC00AF1EE10FA69
:1032100008D895EDBC0AB8EEC00AD0ED000A30EE31
:10322000200A1AE0D5ED060A95EDBB0AB8EEC00AF1
:10323000614890ED001A30EE410AF4EEC00AF1EE5A
:1032400010FA08DB95EDBB0AB8EEC00AD0ED000A13
:1032500030EE600A01E095ED060A85ED060A05F5F7
:103260003B7003C8A0EB0108B8F1000F01DB414639
:1032700001E0C8F100010846FDF7BAF941EC1E0B68
:1032800095ED060A10EE101A0846FDF7C2F99FEDFB
:10329000460B53EC102BCDE906019DED060B51ECCE
:1032A000100BFDF7C4F853EC1E2BCDE908019DED82
:1032B000080B51EC100BFDF72CF941EC1D0B9FEDA9
:1032C0003A1BB0EE4D0AF0EE6D0A04F05DFCB0EE74
:1032D00040CAF0EE60CA9FED360B53EC102B51EC58
:1032E0001C0BFDF7A1F841EC1B0BB0EE4B0A00E004
:1032F0004EE0F0EE6B0A05F06FFAB0EE40FAF0EE39
:1033000060FA2D480068FDF784F941EC1A0B53EC84
:103310001F2BFDF78CF841EC190BFDF7A5F908EE12
:10332000900A95ED060A2448D0ED000A70EE200AB6
:1033300095EDBB0AB8EEC00AF4EEC00AF1EE10FA41
:1033400003DBB07908B10020B07195ED060A1A4888
:10335000D0ED000A70EE600A95EDBC0AB8EEC00A26
:10336000F4EEC00AF1EE10FA03D8B07908B90120E2
:10337000B071D5ED060AB079012802D1B0EE680A25
:1033800001E0B1EE680A30EE800A85ED060A03E03E
:1033900095ED020A85ED060A0AB0BDEC108BBDE87A
:1033A000F0810000880100200000000000000040C3
:1033B000000000000000F03F8C01002070B50446C2
:1033C000E5682669074890ED000A86ED070A064879
:1033D00090ED000A85ED070A01220021204600F049
:1033E000CFFA70BDA00100209C01002010B59848C4
:1033F000007870B39FED970A974880ED000A01208E
:1034000000F072FC954880ED000A9FED950A954802
:1034100080ED000A012000F075FC934880ED000A61
:103420009FED920A924880ED000A002000F05CFCBB
:10343000904880ED000A9FED900A904880ED000AC8
:10344000002000F05FFC8E4880ED000A00208049DB
:103450000870012002F05CF97F48D0ED000A30EEE0
:10346000600ADFED880A80EE201A9FED870A21EEC0
:10347000000A864880ED030A854890ED060A8348D5
:1034800080ED040A834890ED000AF7EE000A30EE62
:10349000C00A7E48D0ED030A20EE200AD0ED040ACF
:1034A0007C4890ED001A01EE200A7B4880ED000A6E
:1034B000774890ED040ADFED790A20EE200ADFED6F
:1034C000780A80EE201A714880ED051A012003F079
:1034D000D9FF6448D0ED000A30EE600ADFED690ADA
:1034E00080EE201A9FED680A21EE000A6D4880EDFB
:1034F000030A674890ED080A6A4880ED040A6A48A2
:1035000090ED000AF7EE000A30EEC00A6548D0EDF3
:10351000030A20EE200AD0ED040A634890ED001A59
:1035200001EE200A614880ED000A594890ED050A35
:103530005F48D0ED050A30EE600ADFED580A20EE54
:10354000200ADFED570A80EE201A564880ED051A52
:10355000002002F0DDF84648D0ED000A30EE600AA7
:10356000DFED480A80EE201A9FED470A21EE000A9F
:10357000504880ED030A504890ED060A4D4880ED12
:10358000040A444890ED000AF7EE000A30EEC00A43
:103590004848D0ED030A20EE200AD0ED040A3D4849
:1035A00090ED001A01EE200A444880ED000A4248DE
:1035B00090ED040ADFED390A20EE200ADFED380A2B
:1035C00080EE201A3B4880ED051A002003F05AFFD8
:1035D0002A48D0ED000A30EE600ADFED2A0A80EEBC
:1035E000201A9FED290A21EE000A354880ED030AD2
:1035F000314890ED080A324880ED040A2A4890EDDF
:10360000000AF7EE000A30EEC00A2D48D0ED030A9A
:1036100020EE200AD0ED040A234890ED001A01EEB6
:10362000200A284880ED000A234890ED050A20482A
:10363000D0ED050A30EE600ADFED180A20EE200A10
:10364000DFED170A80EE201A1D4880ED051A10BD27
:103650004C02002000C0F344FC0100200C020020BA
:1036600000409C44000200201002002000D094453D
:103670002402002034020020003098452802002057
:1036800038020020000000460000B4434C12002025
:10369000D00800204402002014020020000034431F
:1036A000DB0F494078150020480200201802002056
:1036B00088090020A41800202C0900203C020020CA
:1036C000D01B00204002002010B500201E49887049
:1036D000FF2008700020C87008711C48C8601C4892
:1036E0000861096901F54170DFED1A0A9FED1A0AB8
:1036F00003F0AAF81449C96801F54170DFED170A13
:103700009FED170A03F0A0F8012016498870FF20EA
:1037100008700020C87008711348C8601348086119
:10372000096901F54170DFED0B0A9FED0B0A03F00B
:103730008BF80C49C96801F54170DFED080A9FED6F
:10374000080A03F081F810BD1C1F0020A4180020F7
:10375000D01B00200AD7A33C00409C468FC2753C7A
:1037600000401C46FC1E00204C1200207815002052
:103770000F202A49C1F8E0020020C1F8E8026FF0EA
:103780000C00C1F8E40232202549C1F8E002002013
:10379000C1F8E8026FF01A00C1F8E4020A201F49DC
:1037A000C1F8EC020020C1F8F402C1F8F0021120C7
:1037B0001B49C1F8EC020020C1F8F4026FF01000C0
:1037C000C1F8F0020E201749C1F8E0020020C1F84C
:1037D000E8026FF00D00C1F8E4021B201249C1F8A5
:1037E000E0020020C1F8E8026FF01800C1F8E4021E
:1037F0000A200C49C1F8EC020020C1F8F402801F35
:10380000C1F8F0021B200849C1F8EC020020C1F801
:10381000F4026FF01300C1F8F00270474C12002060
:1038200078150020A4180020D01B002010B50446F5
:103830004548C078C0B1454890ED020A80ED060ABF
:10384000434890ED020A80ED060A424890ED020AD4
:1038500080ED060A404890ED020A80ED060A03203A
:103860003E4908703E4908703E488088A0F5806057
:10387000B0F5967F02DD00203B490870394880880A
:10388000A0F5806010F5967F02DA012036490870B5
:103890003248007801281BD14FF4FA703349086090
:1038A0009CB92E48007848B1012804D0022808D1DC
:1038B000FFF75CFA08E0FFF769FB05E0FFF70AFA9B
:1038C00002E0FFF7C1FA00BF04E0FFF7BDFA01E034
:1038D000FFF77AFA2648D0ED000A2348007800EE78
:1038E000100AB8EE400A20EE800A214880ED000A56
:1038F000174890ED060A80ED070A144890ED060A75
:1039000080ED070A144890ED060A80ED070A114879
:1039100090ED060A80ED070A0F4890ED060A15485B
:1039200080ED000A0B4890ED060A134880ED000A6E
:1039300000221146114800F023F8002211460248E7
:1039400000F01EF810BD00001C1F0020781500209C
:103950004C120020D01B0020A4180020A40100203D
:10396000A5010020A87200204D020020980100202F
:1039700094010020B0010020B4010020FC1E0020B2
:103980002DE9F0472DED048B064689469246F468F2
:103990003569D4ED070A94EDB90AB8EEC00AF4EE21
:1039A000C00AF1EE10FA04D894EDB90AB8EEC00AD4
:1039B00011E0D4ED070A94EDB80AB8EEC00AF4EEAF
:1039C000C00AF1EE10FA04DB94EDB80AB8EEC00AB2
:1039D00001E094ED070A84ED070AD4ED070AB0EE82
:1039E000600A04F5417002F0B9FDF0EE408AD5EDB1
:1039F000070A95EDB90AB8EEC00AF4EEC00AF1EE76
:103A000010FA04D895EDB90AB8EEC00A11E0D5ED68
:103A1000070A95EDB80AB8EEC00AF4EEC00AF1EE56
:103A200010FA04DB95EDB80AB8EEC00A01E095ED96
:103A3000070A85ED070AD5ED070AB0EE600A05F51D
:103A4000417002F08BFDB0EE409AB06858B1B0689A
:103A5000401EB06094ED020A84ED4E0A95ED020A14
:103A600085ED4E0A05E0C4ED4E8A85ED4E9A0020A4
:103A7000B060B4F9DC72D4ED020AB0EE600A002244
:103A8000114604F59C7001F033FB84ED2B0AD4ED54
:103A9000050AB0EE600A0122002104F1AC0001F039
:103AA00027FBB0EE408A9FED2C0AB4EEC08AF1EEFF
:103AB00010FA02D89FED280A0BE09FED280AB4EE19
:103AC000C08AF1EE10FA02DB9FED240A01E0B0EEAD
:103AD000480ABDEEC00A10EE100A00B2A4F8DC02DB
:103AE000B5F9DC82D5ED020AB0EE600A002211467B
:103AF00005F59C7001F0FCFA85ED2B0AD5ED050A61
:103B0000B0EE600A0022114605F1AC0001F0F0FAB7
:103B1000B0EE408A9FED100AB4EEC08AF1EE10FAC2
:103B200002D89FED0D0A0BE09FED0C0AB4EEC08A9F
:103B3000F1EE10FA02DB9FED090A01E0B0EE480A4F
:103B4000BDEEC00A10EE100A00B2A5F8DC02BDEC12
:103B5000048BBDE8F08700000060EAC60060EA461A
:103B600070B50446E5682669E07840B196ED020A32
:103B700086ED070A95ED020A85ED070A21E096ED2C
:103B8000070A13480088A0F5806000EE900AF8EE5E
:103B9000E00A104890ED001A01EE200A86ED070AAF
:103BA00095ED070A0A484088A0F5806000EE900A6B
:103BB000F8EEE00A084890ED001A01EE600A85ED83
:103BC000070A002211462046FFF7DAFE70BD00000A
:103BD000A872002084010020800100200CB54178EB
:103BE000032941D14288019242680092027A1F4B18
:103BF0001A70BDF9042000EE902AB8EEE01ADFED4D
:103C00001C1AC1EE210A1B4A92ED001A70EE810ABD
:103C1000F1EE600A184AC2ED000ADDED000A174A0B
:103C200092ED001A70EE810A154AC2ED000A124A9E
:103C3000D2ED000AFDEEE00A10EE902A11B2104A11
:103C4000D2ED000AB0EE600A0E4AD0F80A30536195
:103C5000827B064B1A770C4AB2F84020521C12B2F3
:103C6000094BA3F8402000BF00BF0CBD1C1F002063
:103C70000000C842900000208C000020940000202A
:103C80008800002088090020080A00200021C2685E
:103C9000A2F8DC120269A2F8DC12704710B52DED13
:103CA000020B21200C490870062048700B48007850
:103CB000887008460099C0F803100B21FDF7AAF997
:103CC00001210748FEF7A2FB0648408A401C00B2CB
:103CD000044948821CBD000023730020A401002079
:103CE00070600240F00A0020012803D1034991EDE1
:103CF000160A7047024991ED160AFAE7D00800202B
:103D00002C090020012803D1034991ED150A7047C1
:103D1000024991ED150AFAE7D00800202C0900208D
:103D200000BFFEE79FED0C0A81ED070A9FED0B0A2D
:103D300081ED080A9FED0A0A81ED090A9FED090A43
:103D400081ED0A0A91ED0A0ADFED070A80EE801A7A
:103D500081ED061A704700009C53C9BBBD2F2F3C54
:103D6000A2EB823C28901A41E17A1C4110B504462E
:103D700054F8EC0F90ED000A834880ED000A2068AB
:103D800090ED010A814880ED000A206890ED020A5A
:103D90007F4880ED000A54F8EC0990ED030A7D4855
:103DA00080ED000A7848D0ED000A60EEA00A77485E
:103DB00090ED001AD0ED001A41EE210A744890ED02
:103DC000001AD0ED001A41EE210A724890ED001A57
:103DD000D0ED001A41EE210AB0EE600A05F024F899
:103DE0006D4880ED000A002012E0D4F8EC1001EBE1
:103DF000800191ED000A6849D1ED000A20EE200A09
:103E0000D4F8EC1001EB800181ED000A411CC8B22E
:103E10000428EADB614890ED6F0A5C48D0ED000AA7
:103E200020EE200AF0EE000A80EE201AF834A06896
:103E300080ED041A594890ED6F0A5548D0ED000AFC
:103E400020EE200AF0EE000A80EE201AA06880ED35
:103E5000051A524890ED6F0A4B48D0ED000AF1EE7A
:103E6000600A20EE200AF0EE000A80EE201AA06818
:103E700080ED0A1A494890ED6F0A4648D0ED000AD5
:103E800020EE200AF0EE000A80EE201AA06880EDF5
:103E90000B1A424890ED6F0A3E48D0ED000AF1EE51
:103EA000600A20EE200AF0EE000A80EE201AA068D8
:103EB00080ED101A394890ED6F0A3348D0ED000AB2
:103EC000F1EE600A20EE200AF0EE000A80EE201AE1
:103ED000A06880ED111A314890ED6F0A2C48D0EDA2
:103EE000000A20EE200AF0EE000A80EE201AA068F8
:103EF00080ED161A294890ED6F0A2448D0ED000A8B
:103F0000F1EE600A20EE200AF0EE000A80EE201AA0
:103F1000A06880ED171A206890ED1C0A1F48D0EDAC
:103F2000740A80EE201A206880ED1C1A206890ED3B
:103F3000230A1A48D0ED740A80EE201A206880ED1A
:103F4000231A54F8F80990ED1C0ADFED150AB4EEB7
:103F5000E00AF1EE10FA05DD9FED110AD4F8F80041
:103F600080ED1C0AD4F8F80090ED230ADFED0C0A6E
:103F7000B4EEE00AF1EE10FA05DD9FED090AD4F87F
:103F8000F80080ED230A10BD840300208803002080
:103F90008C03002090030020940300206074002014
:103FA00000401C4610B52DED068BF0EE408AB0EEB9
:103FB00060AAB0EE419AB0EE618AF0EE429A01201A
:103FC0003A4908700846C0ED6C8A80ED6DAA80ED14
:103FD0006E9A9FED370A80ED730A002081F8380150
:103FE0000A46C2F84001C2F844010021C2F8481153
:103FF000C2F84C11B7EE000AB4EEC08AF1EE10FA26
:1040000003DDB7EE000AB0EE408A284880ED748ADE
:10401000C0ED649A032300220621001D00F0C8FBB6
:10402000244B01221146A3F10800FCF718FDB7EE5E
:10403000000A1E48D0F8EC0080ED000A9FED1E0A31
:104040001A48D0F8EC0080ED010A9FED1B0A1748D2
:10405000D0F8EC0080ED020A9FED170A1348D0F863
:10406000EC0080ED030A15491048C0F8D01014493F
:10407000C0F8D4101349C0F8D8101349C0F8DC10A8
:10408000012180F82E1080F82F1001469022D1F8DF
:1040900004010E49FCF7F0F804499022D1F8FC0025
:1040A0000B49FCF7E9F8BDEC068B10BD60740020ED
:1040B00077CC2B322876002000000000D540000885
:1040C0006D3D0008094100083142000868B0000851
:1040D000E402002010B5044654F8F81F9022074867
:1040E000FCF7CAF848220648616AFCF7C5F861691E
:1040F000F83C48220348FCF7BFF810BDE40200205A
:10410000407600208876002010B5044654F8EC0F65
:1041100090ED000AF0EE000A20EE200A3F4880ED04
:10412000000A206890ED010AF0EE000A20EE200A55
:104130003B4880ED000A206890ED020AF0EE000A8C
:1041400020EE200A374880ED000A206890ED030A2F
:10415000F0EE000A20EE200A334880ED000A14F841
:10416000DE2C324B1B885A4314F8E03C02FB03F16F
:10417000206AFCF79AF82B4890ED000AB1EE400A4D
:10418000206A80ED000A284890ED000A206A80ED40
:10419000010A224890ED000AB1EE400A206A80ED43
:1041A000020A1F4890ED000A206A80ED030A1C48AD
:1041B00090ED000A206A80ED060A184890ED000A8A
:1041C000206A80ED070A184890ED000A206A80ED09
:1041D000080A144890ED000A206A80ED090A0F4889
:1041E00090ED000A206A80ED0C0A0D4890ED000A5F
:1041F000B1EE400A206A80ED0D0A0A4890ED000AEF
:10420000B1EE400A206A80ED0E0A074890ED000AE0
:10421000206AEC3C80ED0F0A10BD000098030020DE
:104220009C030020A0030020A4030020E002002043
:1042300070B52DED028B044604F1800104F1780085
:10424000FCF77EFE84F8C800B4F87800A4F8A80053
:104250005A20015BAA20015304F1A80204F158017D
:1042600004F17800FCF77AFD84F8C800B4F8A800DF
:10427000A4F8B0008220015BB220015304F1B00227
:1042800004F1800104F1A800FCF768FD84F8C8007F
:10429000B4F89000A4F8A0009220015BA220015382
:1042A00004F1A00204F1900104F1B000FCF77AFBE4
:1042B00084F8C80004F1B00104F1A000FCF7D4FBBD
:1042C000AC342077206C90ED000AFE4880ED000AA7
:1042D000206C90ED010AFC4880ED000A206C90ED06
:1042E000020AFA4880ED000A206C90ED030AF848B3
:1042F00080ED000A34F8340CA081AC3C0121BA20D6
:104300000153F14890ED000AF148D0ED000A20EE8B
:10431000200AEC48D0ED000AEC4890ED001A00EEBF
:10432000C10AF0EE000A20EE200AD4F82C0180ED3C
:10433000000AE44890ED000AE348D0ED000A20EEC0
:10434000200AE248D0ED000AE14890ED001A00EEA4
:10435000810AF0EE000A20EE200AD4F82C0180ED4C
:10436000010AD84890ED000A20EE000AD648D0EDA8
:10437000000A90ED001A00EEC10AD448D0ED000A00
:1043800090ED001A00EEC10AD148D0ED000A90ED80
:10439000001A00EE810AD4F82C0180ED020A0025F3
:1043A00012E0D4F82C0100EB850090ED000AB0EE8D
:1043B000C00AB0EE408A03F05BFBC64800EB850004
:1043C00080ED000A681CC5B2032DEADBB4F8480092
:1043D000A4F8C0000121C220015304F1C00204F17D
:1043E000B80104F14800FCF74DFD84F8C800B4F8AA
:1043F000C000A4F8A8000121AA20015304F1A802DA
:1044000004F1C00104F1B000FCF7A8FCB83420743A
:10441000012020802189B83CBA20015304F1B80161
:1044200004F1C000FCF78CFD84F8C800A94A3C32B6
:1044300004F1A80104F1B800FCF790FC84F8C8006E
:10444000A54890ED720AD0ED730AB6EE001A60EE40
:10445000810AB4EEE00AF1EE10FA03D201209E497F
:1044600081F838019C4890ED720AD0ED730AB4EEE1
:10447000E00AF1EE10FA46DD90F83801002842D04B
:10448000954890F8390168B19348D0F84011D0F8B8
:104490004401491C40F100008F4AC2F84011C2F8A3
:1044A000440105E000208C4AC2F84001C2F84401F2
:1044B0008948D0F84031D0F844210020D3F13201AE
:1044C000904106D20020844981F8380184F82C00FC
:1044D0004AE0237B814D2D8803FB05F2D4E93A01A4
:1044E000FBF7CAFE237B7D4D2D886B43257B03FBA9
:1044F00005F2D4E93E01FBF7BFFE012084F82C0051
:10450000BDEC028B70BD744890ED720AD0ED730A59
:104510009FED731A60EE810AB4EEE00AF1EE10FA34
:1045200014DD90F8380188B16B4890ED730AD0ED36
:10453000720A30EE600AD0ED730A9FED6A1A60EEDF
:10454000810A80EE201A80ED671A04E0B7EE000AB7
:10455000614880ED670A00215F4AC2F84011C2F845
:104560004411002084F82C00B4F85800A4F8A800E6
:104570008220015BAA20015304F1A80204F180010A
:1045800004F15800FCF7EAFB84F8C80004F1980233
:1045900004F1B00104F1A800FCF7E0FB84F8C800C6
:1045A000002012E0D4F81C1101EB800191ED000A0B
:1045B0004949D1ED670A20EE200AD4F81C1101EB1D
:1045C000800181ED000A411CC8B2B4F898109A220B
:1045D000125B51438142E5DC042025E000211FE00D
:1045E000021F3C4B03EB8202D2ED000A9FED3E1A04
:1045F00080EE810A00EB40030B44D4F81C2102EB4F
:104600008302D2ED000A20EE200A00EB40030B44A7
:10461000D4F81C2102EB830282ED000A4A1CD1B2BD
:104620000329DDDB411CC8B20628D7DBB4F89800AB
:10463000A4F8B8000121BA20015304F1B80204F132
:10464000C00104F19800FCF789FB84F8C8002248F7
:1046500090F83801A0B3042058E0BC21095901EBBF
:10466000800191ED000A1C49D1ED6F0A9FED1F1AE0
:1046700060EE810AB4EEE00AF1EE10FA0BDD91ED86
:104680006F0ADFED1A0A20EE200ABC21095901EB5E
:10469000800181ED000ABC21095901EB800191EDF7
:1046A000000A0D49D1ED6F0A9FED111A60EE810AE3
:1046B000B4EEE00AF1EE10FA26D291ED6F0A19E09D
:1046C00026E00000A8030020AC030020B003002077
:1046D000B4030020E475002060740020E002002094
:1046E000CDCCCC3D6666663FDA0FC93F0AD7233C86
:1046F0000AD723BC5FED020A20EE200ABC2109592B
:1047000001EB800181ED000A411CC8B20628A4DB40
:104710009FED080ABC20005980ED030A04F1300225
:1047200004F1B80104F13800FCF73CF984F8C80042
:1047300000BFE5E60000000010B5B7EE000A16481D
:1047400080ED010AB7EE000A80ED020AB7EE000A1A
:1047500080ED030A9FED110A80ED040A9FED0F0A18
:1047600080ED050A9FED0D0A80ED060A01200A4939
:1047700008709FED0A2AF7EE001A9FED091ADFED87
:10478000090AB2EE040AFFF70DFC9FED070A07487D
:1047900080ED100A10BD00004474002000000000ED
:1047A0008096184B6F12833A96430B3CC4730020DB
:1047B0000FB583B00420FE4908800820FD49088019
:1047C000DDE9031008730399059848730399069867
:1047D00088730021039801740698029004F054FB3A
:1047E00003994861069802900398406901900299E4
:1047F000FBF75BFDEE48008806994843029004F001
:1048000043FB03998861EA4800880699484302906F
:104810000398806901900299FBF747FDE4480088FE
:1048200006994843029004F02FFB0399C861E048C1
:1048300000880699484302900398C0690190029944
:10484000FBF733FDDA48008804994843029004F0EE
:104850001BFB03990862D6480088049948430290DC
:104860000398006A01900299FBF71FFD06980290D9
:1048700004F00AFB03994862069802900398406A84
:1048800001900299FBF711FDC9480088049948433B
:10489000029004F0F9FA03990860C5480088049969
:1048A000484302900398006801900299FBF7FDFCD1
:1048B000BF48008806994843029004F0E5FA03993E
:1048C0004860BB48008806994843029003984068B6
:1048D00001900299FBF7E9FCB54800880599484327
:1048E000029004F0D1FA03998860B14800880599D4
:1048F000484302900398806801900299FBF7D5FC29
:10490000AB48008804994843029004F0BDFA03992B
:10491000C1F8E800A648008804994843029003982B
:10492000D0F8E80001900299FBF7BFFC0398D0F89B
:10493000E80002900398007B019001220146DDE926
:1049400002303030FCF78BF89948008804994843CE
:10495000029004F099FA0399C1F8EC009448008899
:104960000499484302900398D0F8EC000190029912
:10497000FBF79BFC0398D0F8EC0002900398007BB7
:10498000019001220146DDE902303830FCF767F87A
:10499000059818B38648008805994843029004F0AA
:1049A00073FA0399C1F8F0008148008805994843DB
:1049B00002900398D0F8F00001900299FBF775FC83
:1049C0000398D0F8F00002900398407B01900122F8
:1049D0000146DDE902304030FCF741F874480088B8
:1049E00006994843029004F04FFA0399C1F8F40085
:1049F0006F4800880699484302900398D0F8F40065
:104A000001900299FBF751FC0398D0F8F400029052
:104A10000398807B019001220146DDE90230483095
:104A2000FCF71DF862480088049948434843029007
:104A300004F02AFA0399C1F8F8005D480088049947
:104A40004843484302900398D0F8F8000190029937
:104A5000FBF72BFC0398D0F8F80002900398007B3A
:104A600001900398007B00900146DDE90230503050
:104A7000019AFBF7F4FF4E480088049948434843E5
:104A8000029004F001FA0399C1F8FC00484800883C
:104A900004994843484302900398D0F8FC000190E1
:104AA0000299FBF702FC0398D0F8FC0002900398EF
:104AB000007B01900398007B00900146DDE9023005
:104AC0005830019AFBF7CBFF3948008804994843D6
:104AD0004843029004F0D8F90399C1F80001344822
:104AE0000088049948434843029004F0CDF90399A3
:104AF000C1F804012E4800880499484348430290B5
:104B00000398D0F8000101900299FBF7CEFB2848EA
:104B1000008804994843484302900398D0F8040160
:104B200001900299FBF7C1FB0398D0F800010290B5
:104B30000398007B01900398007B00900146DDE91B
:104B400002306030019AFBF78AFF0398D0F8040125
:104B500002900398007B01900398007B009001462F
:104B6000DDE902306830019AFBF779FF059878B3E8
:104B70000F4800880499484305994843029004F07F
:104B800083F90399C1F8080109480088049948434A
:104B90000599484302900398D0F8080101900299C2
:104BA000FBF783FB0398D0F808010290039803E019
:104BB000E0020020E2020020407B01900398007B8D
:104BC00000900146DDE902307030019AFBF747FFA3
:104BD000B94800880699484304994843029004F074
:104BE00053F90399C1F80C01B3480088049948436C
:104BF00006994843029004F047F90399C1F810015F
:104C0000AD480088069948430499484302900398A8
:104C1000D0F80C0101900299FBF747FBA6480088E9
:104C2000049948430699484302900398D0F810012C
:104C300001900299FBF739FB0398D0F80C01029020
:104C40000398007B01900398807B00900146DDE98A
:104C500002307830019AFBF702FF0398D0F8100178
:104C600002900398807B01900398007B009001469E
:104C7000DDE902308030019AFBF7F1FE8E480088B2
:104C8000049948434843029004F0FEF80399C1F8A0
:104C900014018948008804994843484302900398C6
:104CA000D0F8140101900299FBF7FFFA0398D0F8AD
:104CB000140102900398007B01900398007B009000
:104CC0000146DDE902308830019AFBF7C8FE7A48D8
:104CD0000088069948434843029004F0D5F80399A8
:104CE000C1F8180174480088069948434843029067
:104CF0000398D0F8180101900299FBF7D6FA0398AF
:104D0000D0F8180102900398807B01900398807B73
:104D100000900146DDE902309030019AFBF79FFEDA
:104D2000654800880499484306994843029004F076
:104D3000ABF80399C1F81C015F4800880499484307
:104D40000699484302900398D0F81C0101900299FB
:104D5000FBF7ABFA0398D0F81C0102900398807B14
:104D600001900398007B00900146DDE90230983005
:104D7000019AFBF774FE0398007B4F49098848436A
:104D80000399097B4843029004F07EF80399C1F827
:104D900020010398007B4849098848430399097B0F
:104DA0004843029004F070F80399C1F82401039875
:104DB000007B4149098848430399097B4843029095
:104DC00004F062F80399C1F828010398007B3A497E
:104DD00009884843029004F057F80399C1F82C0160
:104DE0000398007B344909884843029004F04CF84A
:104DF0000399C1F830010398D0F82001029003987C
:104E0000007B01900398007B00900146DDE90230B1
:104E1000A030019AFBF723FE0398D0F824010290FA
:104E20000398007B01900398007B00900146DDE928
:104E30000230A830019AFBF712FE0398D0F828013F
:104E400002900398007B01900398007B009001463C
:104E5000DDE90230B030019AFBF701FE0398D0F88B
:104E60002C0102900398007B019001220146DDE9AC
:104E70000230B830FBF7F3FD0398D0F83001029010
:104E80000398007B019001220146DDE90230C03029
:104E9000FBF7E5FD0021039880F82810039880F8BF
:104EA0002910039880F82A10039880F82B10039893
:104EB00080F82C1007B000BDE00200201CB50121D5
:104EC000042000F0ABFC4FF4C040009001208DF8AE
:104ED000040003208DF8050000208DF806008DF8F1
:104EE000070069460448FDF709FE4FF4C041024837
:104EF000FDF778FE1CBD00000008024000BFFEE781
:104F00007047000070B5002100230F22C4781CB345
:104F1000174C246804F4E064C4F5E064C4F307218A
:104F2000C1F10404E3B20A4144789C40E1B28478C0
:104F3000144021430C07210E0E4C0578615504786E
:104F400004F01F050124AC4005786D11AD0005F19A
:104F5000E025C5F8004109E0047804F01F050124AC
:104F6000AC40054D0678761145F8264070BD00002E
:104F70000CED00E000E400E080E100E002490143C4
:104F8000024A1160704700000000FA050CED00E0D5
:104F900070B52DED048B0446207821287CD10F219B
:104FA000204602F033FA002876D00F2221464648E8
:104FB000FBF762F94448D0F80500444908604248CC
:104FC000B0F9030000EE100AB8EEC00AB1EE400AD4
:104FD000DFED3F0A80EE201A3E4880ED001A3E4881
:104FE00090EDB80AB8EEC00A0846D0ED000AB4EE5B
:104FF000E00AF1EE10FA28DD374890EDB90AB8EE74
:10500000C00A0846D0ED000AB4EEE00AF1EE10FA4C
:105010001BD2324890EDB80AB8EEC00A2D48D0ED48
:10502000000AB4EEE00AF1EE10FA0EDD2B4890ED26
:10503000B90AB8EEC00A0846D0ED000AB4EEE00A9C
:10504000F1EE10FA01DD012000E0002005461E48C7
:10505000407800F0070018B130202149087002E0C4
:10506000FF201F4908701848D0F8090000EE100A08
:10507000B5EEC00AF1EE10FA0FDD1348D0F80910B2
:105080000846FBF7C6FA41EC190BB0EE490AF0EE00
:10509000690A03F0A1FB02E012E09FED120BB0EEF3
:1050A000408AF0EE608A51EC180BFBF7DDFA0F49ED
:1050B00008600548407800F007000949087700BFFC
:1050C000BDEC048B70BD00002F120020B00000204A
:1050D0000000C842B4000020781500204C120020C7
:1050E000FC1E00200000000000001840E40000202A
:1050F00030B50346F0EE402A0C461546C3ED012AB2
:1051000093ED000A30EE620A83ED080A93ED080A77
:10511000D3ED070A30EE600A83ED0A0A93ED0F0A19
:1051200083ED100A44B993ED090AD3ED080A30EE75
:10513000200A83ED090A1CE093ED080AB5EEC00AC7
:10514000F1EE10FA02DD93ED080A03E093ED080A90
:10515000B1EE400AD3ED0C0AB4EEE00AF1EE10FA1B
:1051600007D893ED090AD3ED080A30EE200A83ED43
:10517000090A93ED080A83ED070A93ED090AD3EDB6
:105180000B0AB4EEE00AF1EE10FA04DB93ED0B0A21
:1051900083ED090A10E093ED090AD3ED0B0AF1EE55
:1051A000600AB4EEE00AF1EE10FA05D893ED0B0AAE
:1051B000B1EE400A83ED090A93ED040AD3ED080A23
:1051C00020EE200A83ED0D0A93ED050AD3ED090ABE
:1051D00020EE200A83ED0E0A93ED060AD3ED0A0AAB
:1051E00020EE200A83ED0F0A93ED0F0AD3ED160A85
:1051F00020EE200AD3ED100A93ED161AF7EE001AEE
:1052000031EEC11A00EE810A83ED0F0A012D09D19A
:10521000D3ED0F0AB0EE600A03F15C00FDF776FAF9
:1052200083ED0F0A93ED0D0AD3ED0E0A30EE200A3E
:10523000D3ED0F0A30EE200AD3ED110AF1EE600A29
:10524000B4EEE00AF1EE10FA04D893ED110AB1EED3
:10525000400A30BD93ED0D0AD3ED0E0A30EE200A60
:10526000D3ED0F0A30EE200AD3ED110AB4EEE00AB6
:10527000F1EE10FA02DB93ED110AEAE793ED0D0A65
:10528000D3ED0E0A30EE200AD3ED0F0A30EE200ADD
:10529000DFE7000000B503469FED080A83ED070A2B
:1052A0009FED060A83ED100A9FED040A83ED090ABB
:1052B00003F15C00FDF754FA00BD0000000000009F
:1052C000B3EE030AB54880ED520A9FEDB50A80EDB2
:1052D000530A9FEDB40A80ED540A9FEDB30A80EDA6
:1052E000590AB0EE000A80ED620A9FEDB00A80ED27
:1052F000630AB6EE000A80ED640A9FEDAD0A80ED08
:105300005F0A9FEDAC0A80ED2F0A9FEDAB0A80ED9E
:10531000300A9FEDAA0A80ED310A9FEDA90A80EDBF
:10532000360AB3EE040A80ED3F0AB1EE080A80EDBA
:10533000400AB7EE000A80ED410A9FEDA20A80ED17
:105340003C0A9FED980A80EDBE0A9FED960A80ED1B
:10535000BF0A9FED9D0A80EDC00A9FED9C0A80ED7B
:10536000840A9FED9B0A80ED850A9FED8E0A80EDF1
:10537000860A9FED980A80ED780AB3EE0C0A80ED5C
:10538000800AB1EE080A80ED810A9FED8E0A80ED59
:105390007D0AB7EE000A80ED8A0AB2EE040A80EDBB
:1053A0008B0A9FED8D0A80ED8C0A9FED7E0A80EDC1
:1053B0008D0AB3EE040A894880ED520A9FED880AEF
:1053C00080ED530AB3EE0E0A80ED540A9FED760A83
:1053D00080ED590AB6EE000A80ED640A9FED7B0A63
:1053E00080ED5F0A9FED7F0A80ED2F0AB7EE080A75
:1053F00080ED300A9FED7C0A80ED310A9FED7B0A3B
:1054000080ED360AB3EE0C0A80ED3F0AB1EE0C0ACD
:1054100080ED400AB6EE000A80ED410A9FED690A70
:1054200080ED3C0A9FED5F0A80EDBE0A9FED5D0AAC
:1054300080EDBF0AB3EE020A6D4880ED520A9FED7F
:105440006D0A80ED530AB3EE040A80ED540A9FED15
:105450006A0A80ED590AB6EE000A80ED640A9FEDF3
:10546000670A80ED5F0A9FED650A80ED2F0A9FEDC8
:10547000640A80ED300A9FED630A80ED310A9FEDEA
:10548000500A80ED360AB3EE040A80ED3F0AB1EE11
:10549000080A80ED400A9FED430A80ED3C0AB5EE14
:1054A000000A80ED410A9FED3F0A80EDBE0A9FEDA4
:1054B0003D0A80EDBF0AB6EE000A80EDC00A9FEDFE
:1054C000520A80ED840A9FED510A80ED850AB1EE03
:1054D000000A80ED860A9FED3F0A80ED780AB3EE60
:1054E0000C0A80ED800AB1EE080A80ED810A9FED7A
:1054F000350A80ED7D0AB7EE000A80ED8A0AB2EE29
:10550000040A80ED8B0A9FED340A80ED8C0A9FED32
:10551000250A80ED8D0AB3EE070A3D4880ED520A58
:105520009FED2D0A80ED530AB2EE0E0A80ED540A6B
:105530009FED380A80ED590AB6EE000A80ED640A44
:105540009FED1C0A80ED5F0A9FED330A80ED2F0A64
:105550009FED320A80ED300A9FED310A80ED310A6D
:105560009FED220A80ED360AB3EE0C0A80ED3F0A69
:10557000B1EE0C0A80ED400A9FED120A80ED3C0A64
:10558000B6EE000A80ED410A9FED060A80EDBE0AE4
:105590009FED040A80EDBF0A704700004C12002006
:1055A000295C8F3D0000000000002042CDCCCC3EA5
:1055B0000000C84200004843CDCC2C4000001644F7
:1055C0000080A24400C0DA46CDCC4C3E0000164319
:1055D000CDCCCC3F0000FA44CDCCCC3D781500209A
:1055E0008FC2F53D00003443000048440000614490
:1055F000A4180020295C0F3E0000484200002A4306
:105600006666A6400000964400005C439A99B93F44
:10561000D01B002000007042000052436666A63F87
:105620000000FA43B3EE090A304880ED070A9FED07
:10563000300A80ED080A9FED2E0A80ED090A9FEDE1
:105640002D0A80ED0E0A9FED2A0A80ED030A9FEDD8
:105650002A0A80ED140AB3EE090A80ED560A9FED7E
:10566000240A80ED570A9FED220A80ED580A9FED2B
:10567000210A80ED5D0A9FED1E0A80ED520A9FED22
:105680001E0A80ED630AB2EE010A1C4880ED070A8B
:10569000B6EE000A80ED080A9FED150A80ED090AB2
:1056A0009FED170A80ED0E0A9FED130A80ED140A94
:1056B0009FED140A80ED2A0A9FED0D0A80ED2B0A5A
:1056C0009FED110A80ED2C0A9FED090A80ED310A49
:1056D000008800EE100AB8EE400A084880ED260A5D
:1056E0009FED0A0A80ED370A70470000AC0F0020DA
:1056F000000000000000484400007A46700E0020C0
:10570000000016443333B33ECDCC4C3E00BA5B4967
:10571000012805D1054991EDB60AB8EEC00A7047D7
:10572000034991EDB60AB8EEC00AF8E74C12002022
:10573000A41800202DE9F04104460D4616461F46E8
:105740002F4800682F49086005F078F82C49086058
:10575000084600682B490968401A2B490860002058
:105760002A49087248720820887240F2FF100860C7
:105770002748854200DC05E047F23050854200DBD7
:1057800000E0284605462248844200DC05E047F256
:105790003050844200DB00E0204604461C4887422B
:1057A00000DC05E047F23050874200DB00E038467D
:1057B00007461748864200DC05E047F23050864233
:1057C00000DB00E030460646280A1049C872084649
:1057D0000573390A41738773210AC1730474310A4E
:1057E000417486740B48008808B9012000E000204D
:1057F0000849088005490848FCF719FBBDE8F08115
:10580000F0000020EC000020F4000020DC0A002062
:10581000D08AFFFFE80000200068004029B1064A56
:1058200012680243044B1A6004E0034A1268824380
:10583000014B1A60704700003038024029B1064A17
:1058400012680243044B1A6004E0034A1268824360
:10585000014B1A60704700004038024029B1064AE7
:1058600012680243044B1A6004E0034A1268824340
:10587000014B1A607047000020380240F0B500214B
:1058800000220024022500260223324F3F6807F041
:105890000C0121B1042905D0082937D105E02E4F8C
:1058A000076036E02D4F076033E02A4F3F1F3F6807
:1058B000C7F38056274F3F1F3F6807F03F036EB185
:1058C000264FB7FBF3F7DFF88CC0ACF1040CDCF823
:1058D00000C0CCF3881C07FB0CF40CE01E4FB7FB98
:1058E000F3F7DFF870C0ACF1040CDCF800C0CCF3C7
:1058F000881C07FB0CF4174F3F1F3F68C7F3014795
:105900007F1C7D00B4FBF5F7076002E0124F0760D3
:1059100000BF00BF0F4F3F6807F0F0010909104FAB
:105920007A5C0768D74047600A4F3F6807F4E05148
:10593000890A0B4F7A5C4768D7408760054F3F68FC
:1059400007F46041490B064F7A5C4768D740C7604F
:10595000F0BD0000083802400024F40000127A0074
:105960001400002010B54FF480410848FDF731F9CC
:1059700028B94FF480410548FDF736F904E04FF4AB
:1059800080410248FDF72EF910BD000000080240DA
:1059900010B5044604B910BD2078617840EA0120B2
:1059A000C0F30A001C4908806078C010A17840EA62
:1059B0004110C0F30A0018494880A0788011E178AE
:1059C00040EA8100217940EA8120C0F30A001249AF
:1059D000888020794010617940EAC110C0F30A0044
:1059E0000D49C8806079800908726079C0F30110A0
:1059F000487201200949087200F026F80848B0F8FA
:105A00006000401C00B20649A1F860000020054972
:105A1000486000BFBFE70000A8720020F00A002025
:105A2000080A00209C08002010B50648406832286B
:105A300002DD03F0D1FD04E002484068401C01494A
:105A4000486010BD9C08002010B52A48007A002844
:105A50004ED02848407A00284AD0002026490872B3
:105A600048720820887240F20510086021480088BA
:105A7000C0F3C700C8721F48408880091D490978D3
:105A800040EA4110C1B21C4801731A488078800076
:105A90001849898840EA5120C1B217484173154816
:105AA0008088C0F34701144881731248C0880009F8
:105AB0001049097940EAC110C1B20F48C1730D48BD
:105AC000007A0C2101EA80000A49897940EA011034
:105AD0000849497A01F003010843C1B2064801743C
